{
    "contractName": "Raffle",
    "abi": [
        {
            "inputs": [
                {
                    "internalType": "uint256",
                    "name": "entranceFee",
                    "type": "uint256"
                },
                {
                    "internalType": "uint256",
                    "name": "interval",
                    "type": "uint256"
                },
                {
                    "internalType": "address",
                    "name": "_vrfV2PlusWrapper",
                    "type": "address"
                },
                {
                    "internalType": "bytes32",
                    "name": "gasLane",
                    "type": "bytes32"
                },
                {
                    "internalType": "uint256",
                    "name": "subscriptionId",
                    "type": "uint256"
                },
                {
                    "internalType": "uint32",
                    "name": "callbackGasLimit",
                    "type": "uint32"
                }
            ],
            "stateMutability": "nonpayable",
            "type": "constructor"
        },
        {
            "inputs": [
                {
                    "internalType": "address",
                    "name": "have",
                    "type": "address"
                },
                {
                    "internalType": "address",
                    "name": "want",
                    "type": "address"
                }
            ],
            "name": "OnlyVRFWrapperCanFulfill",
            "type": "error"
        },
        {
            "inputs": [],
            "name": "Raffle_SendMoreToEnterRaffle",
            "type": "error"
        },
        {
            "anonymous": false,
            "inputs": [
                {
                    "indexed": true,
                    "internalType": "address",
                    "name": "player",
                    "type": "address"
                }
            ],
            "name": "RaffleEnter",
            "type": "event"
        },
        {
            "inputs": [],
            "name": "enterRaffle",
            "outputs": [],
            "stateMutability": "payable",
            "type": "function"
        },
        {
            "inputs": [],
            "name": "getBalance",
            "outputs": [
                {
                    "internalType": "uint256",
                    "name": "",
                    "type": "uint256"
                }
            ],
            "stateMutability": "view",
            "type": "function"
        },
        {
            "inputs": [],
            "name": "getEntranceFee",
            "outputs": [
                {
                    "internalType": "uint256",
                    "name": "",
                    "type": "uint256"
                }
            ],
            "stateMutability": "view",
            "type": "function"
        },
        {
            "inputs": [],
            "name": "getLinkToken",
            "outputs": [
                {
                    "internalType": "contract LinkTokenInterface",
                    "name": "",
                    "type": "address"
                }
            ],
            "stateMutability": "view",
            "type": "function"
        },
        {
            "inputs": [],
            "name": "i_vrfV2PlusWrapper",
            "outputs": [
                {
                    "internalType": "contract IVRFV2PlusWrapper",
                    "name": "",
                    "type": "address"
                }
            ],
            "stateMutability": "view",
            "type": "function"
        },
        {
            "inputs": [],
            "name": "pickWinner",
            "outputs": [],
            "stateMutability": "nonpayable",
            "type": "function"
        },
        {
            "inputs": [
                {
                    "internalType": "uint256",
                    "name": "_requestId",
                    "type": "uint256"
                },
                {
                    "internalType": "uint256[]",
                    "name": "_randomWords",
                    "type": "uint256[]"
                }
            ],
            "name": "rawFulfillRandomWords",
            "outputs": [],
            "stateMutability": "nonpayable",
            "type": "function"
        }
    ],
    "bytecode": "61016080604052346101525760c08161087780380380916100208285610169565b8339810103126101525780519060208101519161003f604083016101a0565b9260608301519160a060808501519401519463ffffffff8616860361015257604051630711a57d60e21b81526001600160a01b039190911690602081600481855afa90811561015e575f91610120575b506001600160a01b031660805260a05260c05260e052426001556101005261012052610140526040516106c290816101b58239608051818181607e01526102d9015260a05181818160c6015281816102210152610554015260c05181818161041201526105dc015260e051816101130152610100518161016e01526101205181610191015261014051816101c50152f35b90506020813d602011610156575b8161013b60209383610169565b810103126101525761014c906101a0565b5f61008f565b5f80fd5b3d915061012e565b6040513d5f823e3d90fd5b601f909101601f19168101906001600160401b0382119082101761018c57604052565b634e487b7160e01b5f52604160045260245ffd5b51906001600160a01b03821682036101525756fe6080806040526004361015610012575f80fd5b5f3560e01c90816309bc33a7146105c75750806312065fe0146105ac5780631fe543e3146104db5780632cfcc539146104055780635d495aea146100f55780639ed0868d146100b15763e76d516814610069575f80fd5b346100ad575f3660031901126100ad576040517f00000000000000000000000000000000000000000000000000000000000000006001600160a01b03168152602090f35b5f80fd5b346100ad575f3660031901126100ad576040517f00000000000000000000000000000000000000000000000000000000000000006001600160a01b03168152602090f35b346100ad575f3660031901126100ad5760015442034281116103f1577f0000000000000000000000000000000000000000000000000000000000000000116100ad5761014e604051610146816105ff565b5f815261063d565b6040519060c0820182811067ffffffffffffffff8211176103dd576040527f000000000000000000000000000000000000000000000000000000000000000082527f000000000000000000000000000000000000000000000000000000000000000060208301526003604083015260a063ffffffff7f00000000000000000000000000000000000000000000000000000000000000001692836060820152600160808201520152610204604051610146816105ff565b6040516313f2e28560e11b815260048101839052600160248201527f00000000000000000000000000000000000000000000000000000000000000006001600160a01b031692602082604481875afa91821561035f575f926103a5575b50916020916102a66102d49461029860405194859287840152600360408401526001606084015260808084015260a0830190610668565b03601f19810184528361061b565b6040519384928392630200057560e51b84528760048501526024840152606060448401526064830190610668565b03815f7f00000000000000000000000000000000000000000000000000000000000000006001600160a01b03165af1801561035f5761036a575b5060206004916040519283809263fc2a88c360e01b82525afa801561035f5761033357005b6020813d602011610357575b8161034c6020938361061b565b810103126100ad5751005b3d915061033f565b6040513d5f823e3d90fd5b6020813d60201161039d575b816103836020938361061b565b810103126100ad575180151581036100ad5750602061030e565b3d9150610376565b9150916020823d6020116103d5575b816103c16020938361061b565b810103126100ad57905190916102d4610261565b3d91506103b4565b634e487b7160e01b5f52604160045260245ffd5b634e487b7160e01b5f52601160045260245ffd5b5f3660031901126100ad577f000000000000000000000000000000000000000000000000000000000000000034106104cc575f54680100000000000000008110156103dd5760018101805f558110156104b8577f290decd9548b62a8d60345a988386fc84ba6bc95484008f6362f93160ef3e56301336bffffffffffffffffffffffff60a01b825416179055337f0805e1d667bddb8a95f0f09880cf94f403fb596ce79928d9f29b74203ba284d45f80a2005b634e487b7160e01b5f52603260045260245ffd5b633e48252960e01b5f5260045ffd5b346100ad5760403660031901126100ad5760243567ffffffffffffffff81116100ad57366023820112156100ad5780600401359067ffffffffffffffff82116103dd57602460208360051b93604051906105378387018361061b565b81520192820101903682116100ad57602401915b81831061059c577f00000000000000000000000000000000000000000000000000000000000000006001600160a01b03163381900361058657005b6345d498b760e11b5f523360045260245260445ffd5b823581526020928301920161054b565b346100ad575f3660031901126100ad57602047604051908152f35b346100ad575f3660031901126100ad576020907f00000000000000000000000000000000000000000000000000000000000000008152f35b6020810190811067ffffffffffffffff8211176103dd57604052565b90601f8019910116810190811067ffffffffffffffff8211176103dd57604052565b6040519063125fa26760e31b602083015251151560248201526024815261066560448261061b565b90565b805180835260209291819084018484015e5f828201840152601f01601f191601019056fea26469706673582212207ed96c0fdd50c934559ce1ef7236608f73f3377e326ba501e517d87ef1fa09d264736f6c634300081e0033",
    "sourcePath": "/home/alva/foundry/foundry-smart-contract-lottery-f23/src/Raffle.sol",
    "compiler": {
        "name": "solc",
        "version": "0.8.30+commit.73712a01"
    },
    "functionHashes": {
        "enterRaffle()": "2cfcc539",
        "getBalance()": "12065fe0",
        "getEntranceFee()": "09bc33a7",
        "getLinkToken()": "e76d5168",
        "i_vrfV2PlusWrapper()": "9ed0868d",
        "pickWinner()": "5d495aea",
        "rawFulfillRandomWords(uint256,uint256[])": "1fe543e3"
    },
    "gasEstimates": {
        "creation": {
            "codeDepositCost": "346000",
            "executionCost": "infinite",
            "totalCost": "infinite"
        },
        "external": {
            "enterRaffle()": "infinite",
            "getBalance()": "180",
            "getEntranceFee()": "infinite",
            "getLinkToken()": "infinite",
            "i_vrfV2PlusWrapper()": "infinite",
            "pickWinner()": "infinite",
            "rawFulfillRandomWords(uint256,uint256[])": "infinite"
        },
        "internal": {
            "fulfillRandomWords(uint256,uint256[] memory)": "infinite"
        }
    }
}